{
  "contractName": "MyNFT",
  "abi": [
    {
      "inputs": [
        {
          "internalType": "contract IERC20",
          "name": "_rewardToken",
          "type": "address"
        }
      ],
      "stateMutability": "nonpayable",
      "type": "constructor"
    },
    {
      "anonymous": false,
      "inputs": [
        {
          "indexed": true,
          "internalType": "address",
          "name": "owner",
          "type": "address"
        },
        {
          "indexed": true,
          "internalType": "address",
          "name": "approved",
          "type": "address"
        },
        {
          "indexed": true,
          "internalType": "uint256",
          "name": "tokenId",
          "type": "uint256"
        }
      ],
      "name": "Approval",
      "type": "event"
    },
    {
      "anonymous": false,
      "inputs": [
        {
          "indexed": true,
          "internalType": "address",
          "name": "owner",
          "type": "address"
        },
        {
          "indexed": true,
          "internalType": "address",
          "name": "operator",
          "type": "address"
        },
        {
          "indexed": false,
          "internalType": "bool",
          "name": "approved",
          "type": "bool"
        }
      ],
      "name": "ApprovalForAll",
      "type": "event"
    },
    {
      "anonymous": false,
      "inputs": [
        {
          "indexed": true,
          "internalType": "address",
          "name": "previousOwner",
          "type": "address"
        },
        {
          "indexed": true,
          "internalType": "address",
          "name": "newOwner",
          "type": "address"
        }
      ],
      "name": "OwnershipTransferred",
      "type": "event"
    },
    {
      "anonymous": false,
      "inputs": [
        {
          "indexed": true,
          "internalType": "address",
          "name": "from",
          "type": "address"
        },
        {
          "indexed": true,
          "internalType": "address",
          "name": "to",
          "type": "address"
        },
        {
          "indexed": true,
          "internalType": "uint256",
          "name": "tokenId",
          "type": "uint256"
        }
      ],
      "name": "Transfer",
      "type": "event"
    },
    {
      "inputs": [
        {
          "internalType": "address",
          "name": "to",
          "type": "address"
        },
        {
          "internalType": "uint256",
          "name": "tokenId",
          "type": "uint256"
        }
      ],
      "name": "approve",
      "outputs": [],
      "stateMutability": "nonpayable",
      "type": "function"
    },
    {
      "inputs": [
        {
          "internalType": "address",
          "name": "owner",
          "type": "address"
        }
      ],
      "name": "balanceOf",
      "outputs": [
        {
          "internalType": "uint256",
          "name": "",
          "type": "uint256"
        }
      ],
      "stateMutability": "view",
      "type": "function",
      "constant": true
    },
    {
      "inputs": [
        {
          "internalType": "uint256",
          "name": "tokenId",
          "type": "uint256"
        }
      ],
      "name": "getApproved",
      "outputs": [
        {
          "internalType": "address",
          "name": "",
          "type": "address"
        }
      ],
      "stateMutability": "view",
      "type": "function",
      "constant": true
    },
    {
      "inputs": [
        {
          "internalType": "address",
          "name": "owner",
          "type": "address"
        },
        {
          "internalType": "address",
          "name": "operator",
          "type": "address"
        }
      ],
      "name": "isApprovedForAll",
      "outputs": [
        {
          "internalType": "bool",
          "name": "",
          "type": "bool"
        }
      ],
      "stateMutability": "view",
      "type": "function",
      "constant": true
    },
    {
      "inputs": [],
      "name": "name",
      "outputs": [
        {
          "internalType": "string",
          "name": "",
          "type": "string"
        }
      ],
      "stateMutability": "view",
      "type": "function",
      "constant": true
    },
    {
      "inputs": [],
      "name": "owner",
      "outputs": [
        {
          "internalType": "address",
          "name": "",
          "type": "address"
        }
      ],
      "stateMutability": "view",
      "type": "function",
      "constant": true
    },
    {
      "inputs": [
        {
          "internalType": "uint256",
          "name": "tokenId",
          "type": "uint256"
        }
      ],
      "name": "ownerOf",
      "outputs": [
        {
          "internalType": "address",
          "name": "",
          "type": "address"
        }
      ],
      "stateMutability": "view",
      "type": "function",
      "constant": true
    },
    {
      "inputs": [],
      "name": "renounceOwnership",
      "outputs": [],
      "stateMutability": "nonpayable",
      "type": "function"
    },
    {
      "inputs": [],
      "name": "rewardToken",
      "outputs": [
        {
          "internalType": "contract IERC20",
          "name": "",
          "type": "address"
        }
      ],
      "stateMutability": "view",
      "type": "function",
      "constant": true
    },
    {
      "inputs": [
        {
          "internalType": "address",
          "name": "from",
          "type": "address"
        },
        {
          "internalType": "address",
          "name": "to",
          "type": "address"
        },
        {
          "internalType": "uint256",
          "name": "tokenId",
          "type": "uint256"
        }
      ],
      "name": "safeTransferFrom",
      "outputs": [],
      "stateMutability": "nonpayable",
      "type": "function"
    },
    {
      "inputs": [
        {
          "internalType": "address",
          "name": "from",
          "type": "address"
        },
        {
          "internalType": "address",
          "name": "to",
          "type": "address"
        },
        {
          "internalType": "uint256",
          "name": "tokenId",
          "type": "uint256"
        },
        {
          "internalType": "bytes",
          "name": "data",
          "type": "bytes"
        }
      ],
      "name": "safeTransferFrom",
      "outputs": [],
      "stateMutability": "nonpayable",
      "type": "function"
    },
    {
      "inputs": [
        {
          "internalType": "address",
          "name": "operator",
          "type": "address"
        },
        {
          "internalType": "bool",
          "name": "approved",
          "type": "bool"
        }
      ],
      "name": "setApprovalForAll",
      "outputs": [],
      "stateMutability": "nonpayable",
      "type": "function"
    },
    {
      "inputs": [
        {
          "internalType": "bytes4",
          "name": "interfaceId",
          "type": "bytes4"
        }
      ],
      "name": "supportsInterface",
      "outputs": [
        {
          "internalType": "bool",
          "name": "",
          "type": "bool"
        }
      ],
      "stateMutability": "view",
      "type": "function",
      "constant": true
    },
    {
      "inputs": [],
      "name": "symbol",
      "outputs": [
        {
          "internalType": "string",
          "name": "",
          "type": "string"
        }
      ],
      "stateMutability": "view",
      "type": "function",
      "constant": true
    },
    {
      "inputs": [
        {
          "internalType": "uint256",
          "name": "tokenId",
          "type": "uint256"
        }
      ],
      "name": "tokenURI",
      "outputs": [
        {
          "internalType": "string",
          "name": "",
          "type": "string"
        }
      ],
      "stateMutability": "view",
      "type": "function",
      "constant": true
    },
    {
      "inputs": [
        {
          "internalType": "address",
          "name": "from",
          "type": "address"
        },
        {
          "internalType": "address",
          "name": "to",
          "type": "address"
        },
        {
          "internalType": "uint256",
          "name": "tokenId",
          "type": "uint256"
        }
      ],
      "name": "transferFrom",
      "outputs": [],
      "stateMutability": "nonpayable",
      "type": "function"
    },
    {
      "inputs": [
        {
          "internalType": "address",
          "name": "newOwner",
          "type": "address"
        }
      ],
      "name": "transferOwnership",
      "outputs": [],
      "stateMutability": "nonpayable",
      "type": "function"
    },
    {
      "inputs": [
        {
          "internalType": "address",
          "name": "recipient",
          "type": "address"
        },
        {
          "internalType": "string",
          "name": "tokenURI",
          "type": "string"
        }
      ],
      "name": "mintNFT",
      "outputs": [
        {
          "internalType": "uint256",
          "name": "",
          "type": "uint256"
        }
      ],
      "stateMutability": "nonpayable",
      "type": "function"
    },
    {
      "inputs": [
        {
          "internalType": "uint256",
          "name": "amount",
          "type": "uint256"
        }
      ],
      "name": "depositTokens",
      "outputs": [],
      "stateMutability": "nonpayable",
      "type": "function"
    }
  ],
  "bytecode": "0x60806040523480156200001157600080fd5b50604051620038733803806200387383398181016040528101906200003791906200027d565b6040518060400160405280600581526020017f4d794e46540000000000000000000000000000000000000000000000000000008152506040518060400160405280600381526020017f4e465400000000000000000000000000000000000000000000000000000000008152508160009081620000b4919062000529565b508060019081620000c6919062000529565b505050620000e9620000dd6200013160201b60201c565b6200013960201b60201c565b80600960006101000a81548173ffffffffffffffffffffffffffffffffffffffff021916908373ffffffffffffffffffffffffffffffffffffffff1602179055505062000610565b600033905090565b6000600760009054906101000a900473ffffffffffffffffffffffffffffffffffffffff16905081600760006101000a81548173ffffffffffffffffffffffffffffffffffffffff021916908373ffffffffffffffffffffffffffffffffffffffff1602179055508173ffffffffffffffffffffffffffffffffffffffff168173ffffffffffffffffffffffffffffffffffffffff167f8be0079c531659141344cd1fd0a4f28419497f9722a3daafe3b4186f6b6457e060405160405180910390a35050565b600080fd5b600073ffffffffffffffffffffffffffffffffffffffff82169050919050565b6000620002318262000204565b9050919050565b6000620002458262000224565b9050919050565b620002578162000238565b81146200026357600080fd5b50565b60008151905062000277816200024c565b92915050565b600060208284031215620002965762000295620001ff565b5b6000620002a68482850162000266565b91505092915050565b600081519050919050565b7f4e487b7100000000000000000000000000000000000000000000000000000000600052604160045260246000fd5b7f4e487b7100000000000000000000000000000000000000000000000000000000600052602260045260246000fd5b600060028204905060018216806200033157607f821691505b602082108103620003475762000346620002e9565b5b50919050565b60008190508160005260206000209050919050565b60006020601f8301049050919050565b600082821b905092915050565b600060088302620003b17fffffffffffffffffffffffffffffffffffffffffffffffffffffffffffffffff8262000372565b620003bd868362000372565b95508019841693508086168417925050509392505050565b6000819050919050565b6000819050919050565b60006200040a62000404620003fe84620003d5565b620003df565b620003d5565b9050919050565b6000819050919050565b6200042683620003e9565b6200043e620004358262000411565b8484546200037f565b825550505050565b600090565b6200045562000446565b620004628184846200041b565b505050565b5b818110156200048a576200047e6000826200044b565b60018101905062000468565b5050565b601f821115620004d957620004a3816200034d565b620004ae8462000362565b81016020851015620004be578190505b620004d6620004cd8562000362565b83018262000467565b50505b505050565b600082821c905092915050565b6000620004fe60001984600802620004de565b1980831691505092915050565b6000620005198383620004eb565b9150826002028217905092915050565b6200053482620002af565b67ffffffffffffffff81111562000550576200054f620002ba565b5b6200055c825462000318565b620005698282856200048e565b600060209050601f831160018114620005a157600084156200058c578287015190505b6200059885826200050b565b86555062000608565b601f198416620005b1866200034d565b60005b82811015620005db57848901518255600182019150602085019450602081019050620005b4565b86831015620005fb5784890151620005f7601f891682620004eb565b8355505b6001600288020188555050505b505050505050565b61325380620006206000396000f3fe608060405234801561001057600080fd5b50600436106101215760003560e01c80638da5cb5b116100ad578063dd49756e11610071578063dd49756e14610306578063e985e9c514610322578063eacabe1414610352578063f2fde38b14610382578063f7c618c11461039e57610121565b80638da5cb5b1461026257806395d89b4114610280578063a22cb4651461029e578063b88d4fde146102ba578063c87b56dd146102d657610121565b806323b872dd116100f457806323b872dd146101c057806342842e0e146101dc5780636352211e146101f857806370a0823114610228578063715018a61461025857610121565b806301ffc9a71461012657806306fdde0314610156578063081812fc14610174578063095ea7b3146101a4575b600080fd5b610140600480360381019061013b9190611e5e565b6103bc565b60405161014d9190611ea6565b60405180910390f35b61015e61049e565b60405161016b9190611f51565b60405180910390f35b61018e60048036038101906101899190611fa9565b610530565b60405161019b9190612017565b60405180910390f35b6101be60048036038101906101b9919061205e565b610576565b005b6101da60048036038101906101d5919061209e565b61068d565b005b6101f660048036038101906101f1919061209e565b6106ed565b005b610212600480360381019061020d9190611fa9565b61070d565b60405161021f9190612017565b60405180910390f35b610242600480360381019061023d91906120f1565b610793565b60405161024f919061212d565b60405180910390f35b61026061084a565b005b61026a61085e565b6040516102779190612017565b60405180910390f35b610288610888565b6040516102959190611f51565b60405180910390f35b6102b860048036038101906102b39190612174565b61091a565b005b6102d460048036038101906102cf91906122e9565b610930565b005b6102f060048036038101906102eb9190611fa9565b610992565b6040516102fd9190611f51565b60405180910390f35b610320600480360381019061031b9190611fa9565b610aa4565b005b61033c6004803603810190610337919061236c565b610b4a565b6040516103499190611ea6565b60405180910390f35b61036c6004803603810190610367919061244d565b610bde565b604051610379919061212d565b60405180910390f35b61039c600480360381019061039791906120f1565b610c27565b005b6103a6610caa565b6040516103b39190612508565b60405180910390f35b60007f80ac58cd000000000000000000000000000000000000000000000000000000007bffffffffffffffffffffffffffffffffffffffffffffffffffffffff1916827bffffffffffffffffffffffffffffffffffffffffffffffffffffffff1916148061048757507f5b5e139f000000000000000000000000000000000000000000000000000000007bffffffffffffffffffffffffffffffffffffffffffffffffffffffff1916827bffffffffffffffffffffffffffffffffffffffffffffffffffffffff1916145b80610497575061049682610cd0565b5b9050919050565b6060600080546104ad90612552565b80601f01602080910402602001604051908101604052809291908181526020018280546104d990612552565b80156105265780601f106104fb57610100808354040283529160200191610526565b820191906000526020600020905b81548152906001019060200180831161050957829003601f168201915b5050505050905090565b600061053b82610d3a565b6004600083815260200190815260200160002060009054906101000a900473ffffffffffffffffffffffffffffffffffffffff169050919050565b60006105818261070d565b90508073ffffffffffffffffffffffffffffffffffffffff168373ffffffffffffffffffffffffffffffffffffffff16036105f1576040517f08c379a00000000000000000000000000000000000000000000000000000000081526004016105e8906125f5565b60405180910390fd5b8073ffffffffffffffffffffffffffffffffffffffff16610610610d85565b73ffffffffffffffffffffffffffffffffffffffff16148061063f575061063e81610639610d85565b610b4a565b5b61067e576040517f08c379a000000000000000000000000000000000000000000000000000000000815260040161067590612687565b60405180910390fd5b6106888383610d8d565b505050565b61069e610698610d85565b82610e46565b6106dd576040517f08c379a00000000000000000000000000000000000000000000000000000000081526004016106d490612719565b60405180910390fd5b6106e8838383610edb565b505050565b61070883838360405180602001604052806000815250610930565b505050565b600080610719836111d4565b9050600073ffffffffffffffffffffffffffffffffffffffff168173ffffffffffffffffffffffffffffffffffffffff160361078a576040517f08c379a000000000000000000000000000000000000000000000000000000000815260040161078190612785565b60405180910390fd5b80915050919050565b60008073ffffffffffffffffffffffffffffffffffffffff168273ffffffffffffffffffffffffffffffffffffffff1603610803576040517f08c379a00000000000000000000000000000000000000000000000000000000081526004016107fa90612817565b60405180910390fd5b600360008373ffffffffffffffffffffffffffffffffffffffff1673ffffffffffffffffffffffffffffffffffffffff168152602001908152602001600020549050919050565b610852611211565b61085c600061128f565b565b6000600760009054906101000a900473ffffffffffffffffffffffffffffffffffffffff16905090565b60606001805461089790612552565b80601f01602080910402602001604051908101604052809291908181526020018280546108c390612552565b80156109105780601f106108e557610100808354040283529160200191610910565b820191906000526020600020905b8154815290600101906020018083116108f357829003601f168201915b5050505050905090565b61092c610925610d85565b8383611355565b5050565b61094161093b610d85565b83610e46565b610980576040517f08c379a000000000000000000000000000000000000000000000000000000000815260040161097790612719565b60405180910390fd5b61098c848484846114c1565b50505050565b606061099d82610d3a565b60006006600084815260200190815260200160002080546109bd90612552565b80601f01602080910402602001604051908101604052809291908181526020018280546109e990612552565b8015610a365780601f10610a0b57610100808354040283529160200191610a36565b820191906000526020600020905b815481529060010190602001808311610a1957829003601f168201915b505050505090506000610a4761151d565b90506000815103610a5c578192505050610a9f565b600082511115610a91578082604051602001610a79929190612873565b60405160208183030381529060405292505050610a9f565b610a9a84611534565b925050505b919050565b600960009054906101000a900473ffffffffffffffffffffffffffffffffffffffff1673ffffffffffffffffffffffffffffffffffffffff166323b872dd3330846040518463ffffffff1660e01b8152600401610b0393929190612897565b6020604051808303816000875af1158015610b22573d6000803e3d6000fd5b505050506040513d601f19601f82011682018060405250810190610b4691906128e3565b5050565b6000600560008473ffffffffffffffffffffffffffffffffffffffff1673ffffffffffffffffffffffffffffffffffffffff16815260200190815260200160002060008373ffffffffffffffffffffffffffffffffffffffff1673ffffffffffffffffffffffffffffffffffffffff16815260200190815260200160002060009054906101000a900460ff16905092915050565b6000610be8611211565b610bf2600861159c565b6000610bfe60086115b2565b9050610c0a84826115c0565b610c1481846117dd565b610c1d8461184a565b8091505092915050565b610c2f611211565b600073ffffffffffffffffffffffffffffffffffffffff168173ffffffffffffffffffffffffffffffffffffffff1603610c9e576040517f08c379a0000000000000000000000000000000000000000000000000000000008152600401610c9590612982565b60405180910390fd5b610ca78161128f565b50565b600960009054906101000a900473ffffffffffffffffffffffffffffffffffffffff1681565b60007f01ffc9a7000000000000000000000000000000000000000000000000000000007bffffffffffffffffffffffffffffffffffffffffffffffffffffffff1916827bffffffffffffffffffffffffffffffffffffffffffffffffffffffff1916149050919050565b610d43816119da565b610d82576040517f08c379a0000000000000000000000000000000000000000000000000000000008152600401610d7990612785565b60405180910390fd5b50565b600033905090565b816004600083815260200190815260200160002060006101000a81548173ffffffffffffffffffffffffffffffffffffffff021916908373ffffffffffffffffffffffffffffffffffffffff160217905550808273ffffffffffffffffffffffffffffffffffffffff16610e008361070d565b73ffffffffffffffffffffffffffffffffffffffff167f8c5be1e5ebec7d5bd14f71427d1e84f3dd0314c0f7b2291e5b200ac8c7c3b92560405160405180910390a45050565b600080610e528361070d565b90508073ffffffffffffffffffffffffffffffffffffffff168473ffffffffffffffffffffffffffffffffffffffff161480610e945750610e938185610b4a565b5b80610ed257508373ffffffffffffffffffffffffffffffffffffffff16610eba84610530565b73ffffffffffffffffffffffffffffffffffffffff16145b91505092915050565b8273ffffffffffffffffffffffffffffffffffffffff16610efb8261070d565b73ffffffffffffffffffffffffffffffffffffffff1614610f51576040517f08c379a0000000000000000000000000000000000000000000000000000000008152600401610f4890612a14565b60405180910390fd5b600073ffffffffffffffffffffffffffffffffffffffff168273ffffffffffffffffffffffffffffffffffffffff1603610fc0576040517f08c379a0000000000000000000000000000000000000000000000000000000008152600401610fb790612aa6565b60405180910390fd5b610fcd8383836001611a1b565b8273ffffffffffffffffffffffffffffffffffffffff16610fed8261070d565b73ffffffffffffffffffffffffffffffffffffffff1614611043576040517f08c379a000000000000000000000000000000000000000000000000000000000815260040161103a90612a14565b60405180910390fd5b6004600082815260200190815260200160002060006101000a81549073ffffffffffffffffffffffffffffffffffffffff02191690556001600360008573ffffffffffffffffffffffffffffffffffffffff1673ffffffffffffffffffffffffffffffffffffffff168152602001908152602001600020600082825403925050819055506001600360008473ffffffffffffffffffffffffffffffffffffffff1673ffffffffffffffffffffffffffffffffffffffff16815260200190815260200160002060008282540192505081905550816002600083815260200190815260200160002060006101000a81548173ffffffffffffffffffffffffffffffffffffffff021916908373ffffffffffffffffffffffffffffffffffffffff160217905550808273ffffffffffffffffffffffffffffffffffffffff168473ffffffffffffffffffffffffffffffffffffffff167fddf252ad1be2c89b69c2b068fc378daa952ba7f163c4a11628f55a4df523b3ef60405160405180910390a46111cf8383836001611a21565b505050565b60006002600083815260200190815260200160002060009054906101000a900473ffffffffffffffffffffffffffffffffffffffff169050919050565b611219610d85565b73ffffffffffffffffffffffffffffffffffffffff1661123761085e565b73ffffffffffffffffffffffffffffffffffffffff161461128d576040517f08c379a000000000000000000000000000000000000000000000000000000000815260040161128490612b12565b60405180910390fd5b565b6000600760009054906101000a900473ffffffffffffffffffffffffffffffffffffffff16905081600760006101000a81548173ffffffffffffffffffffffffffffffffffffffff021916908373ffffffffffffffffffffffffffffffffffffffff1602179055508173ffffffffffffffffffffffffffffffffffffffff168173ffffffffffffffffffffffffffffffffffffffff167f8be0079c531659141344cd1fd0a4f28419497f9722a3daafe3b4186f6b6457e060405160405180910390a35050565b8173ffffffffffffffffffffffffffffffffffffffff168373ffffffffffffffffffffffffffffffffffffffff16036113c3576040517f08c379a00000000000000000000000000000000000000000000000000000000081526004016113ba90612b7e565b60405180910390fd5b80600560008573ffffffffffffffffffffffffffffffffffffffff1673ffffffffffffffffffffffffffffffffffffffff16815260200190815260200160002060008473ffffffffffffffffffffffffffffffffffffffff1673ffffffffffffffffffffffffffffffffffffffff16815260200190815260200160002060006101000a81548160ff0219169083151502179055508173ffffffffffffffffffffffffffffffffffffffff168373ffffffffffffffffffffffffffffffffffffffff167f17307eab39ab6107e8899845ad3d59bd9653f200f220920489ca2b5937696c31836040516114b49190611ea6565b60405180910390a3505050565b6114cc848484610edb565b6114d884848484611a27565b611517576040517f08c379a000000000000000000000000000000000000000000000000000000000815260040161150e90612c10565b60405180910390fd5b50505050565b606060405180602001604052806000815250905090565b606061153f82610d3a565b600061154961151d565b905060008151116115695760405180602001604052806000815250611594565b8061157384611bae565b604051602001611584929190612873565b6040516020818303038152906040525b915050919050565b6001816000016000828254019250508190555050565b600081600001549050919050565b600073ffffffffffffffffffffffffffffffffffffffff168273ffffffffffffffffffffffffffffffffffffffff160361162f576040517f08c379a000000000000000000000000000000000000000000000000000000000815260040161162690612c7c565b60405180910390fd5b611638816119da565b15611678576040517f08c379a000000000000000000000000000000000000000000000000000000000815260040161166f90612ce8565b60405180910390fd5b611686600083836001611a1b565b61168f816119da565b156116cf576040517f08c379a00000000000000000000000000000000000000000000000000000000081526004016116c690612ce8565b60405180910390fd5b6001600360008473ffffffffffffffffffffffffffffffffffffffff1673ffffffffffffffffffffffffffffffffffffffff16815260200190815260200160002060008282540192505081905550816002600083815260200190815260200160002060006101000a81548173ffffffffffffffffffffffffffffffffffffffff021916908373ffffffffffffffffffffffffffffffffffffffff160217905550808273ffffffffffffffffffffffffffffffffffffffff16600073ffffffffffffffffffffffffffffffffffffffff167fddf252ad1be2c89b69c2b068fc378daa952ba7f163c4a11628f55a4df523b3ef60405160405180910390a46117d9600083836001611a21565b5050565b6117e6826119da565b611825576040517f08c379a000000000000000000000000000000000000000000000000000000000815260040161181c90612d7a565b60405180910390fd5b806006600084815260200190815260200160002090816118459190612f3c565b505050565b6000670de0b6b3a7640000905080600960009054906101000a900473ffffffffffffffffffffffffffffffffffffffff1673ffffffffffffffffffffffffffffffffffffffff166370a08231306040518263ffffffff1660e01b81526004016118b39190612017565b602060405180830381865afa1580156118d0573d6000803e3d6000fd5b505050506040513d601f19601f820116820180604052508101906118f49190613023565b1015611935576040517f08c379a000000000000000000000000000000000000000000000000000000000815260040161192c906130c2565b60405180910390fd5b600960009054906101000a900473ffffffffffffffffffffffffffffffffffffffff1673ffffffffffffffffffffffffffffffffffffffff1663a9059cbb83836040518363ffffffff1660e01b81526004016119929291906130e2565b6020604051808303816000875af11580156119b1573d6000803e3d6000fd5b505050506040513d601f19601f820116820180604052508101906119d591906128e3565b505050565b60008073ffffffffffffffffffffffffffffffffffffffff166119fc836111d4565b73ffffffffffffffffffffffffffffffffffffffff1614159050919050565b50505050565b50505050565b6000611a488473ffffffffffffffffffffffffffffffffffffffff16611c7c565b15611ba1578373ffffffffffffffffffffffffffffffffffffffff1663150b7a02611a71610d85565b8786866040518563ffffffff1660e01b8152600401611a939493929190613160565b6020604051808303816000875af1925050508015611acf57506040513d601f19601f82011682018060405250810190611acc91906131c1565b60015b611b51573d8060008114611aff576040519150601f19603f3d011682016040523d82523d6000602084013e611b04565b606091505b506000815103611b49576040517f08c379a0000000000000000000000000000000000000000000000000000000008152600401611b4090612c10565b60405180910390fd5b805181602001fd5b63150b7a0260e01b7bffffffffffffffffffffffffffffffffffffffffffffffffffffffff1916817bffffffffffffffffffffffffffffffffffffffffffffffffffffffff191614915050611ba6565b600190505b949350505050565b606060006001611bbd84611c9f565b01905060008167ffffffffffffffff811115611bdc57611bdb6121be565b5b6040519080825280601f01601f191660200182016040528015611c0e5781602001600182028036833780820191505090505b509050600082602001820190505b600115611c71578080600190039150507f3031323334353637383961626364656600000000000000000000000000000000600a86061a8153600a8581611c6557611c646131ee565b5b04945060008503611c1c575b819350505050919050565b6000808273ffffffffffffffffffffffffffffffffffffffff163b119050919050565b600080600090507a184f03e93ff9f4daa797ed6e38ed64bf6a1f0100000000000000008310611cfd577a184f03e93ff9f4daa797ed6e38ed64bf6a1f0100000000000000008381611cf357611cf26131ee565b5b0492506040810190505b6d04ee2d6d415b85acef81000000008310611d3a576d04ee2d6d415b85acef81000000008381611d3057611d2f6131ee565b5b0492506020810190505b662386f26fc100008310611d6957662386f26fc100008381611d5f57611d5e6131ee565b5b0492506010810190505b6305f5e1008310611d92576305f5e1008381611d8857611d876131ee565b5b0492506008810190505b6127108310611db7576127108381611dad57611dac6131ee565b5b0492506004810190505b60648310611dda5760648381611dd057611dcf6131ee565b5b0492506002810190505b600a8310611de9576001810190505b80915050919050565b6000604051905090565b600080fd5b600080fd5b60007fffffffff0000000000000000000000000000000000000000000000000000000082169050919050565b611e3b81611e06565b8114611e4657600080fd5b50565b600081359050611e5881611e32565b92915050565b600060208284031215611e7457611e73611dfc565b5b6000611e8284828501611e49565b91505092915050565b60008115159050919050565b611ea081611e8b565b82525050565b6000602082019050611ebb6000830184611e97565b92915050565b600081519050919050565b600082825260208201905092915050565b60005b83811015611efb578082015181840152602081019050611ee0565b60008484015250505050565b6000601f19601f8301169050919050565b6000611f2382611ec1565b611f2d8185611ecc565b9350611f3d818560208601611edd565b611f4681611f07565b840191505092915050565b60006020820190508181036000830152611f6b8184611f18565b905092915050565b6000819050919050565b611f8681611f73565b8114611f9157600080fd5b50565b600081359050611fa381611f7d565b92915050565b600060208284031215611fbf57611fbe611dfc565b5b6000611fcd84828501611f94565b91505092915050565b600073ffffffffffffffffffffffffffffffffffffffff82169050919050565b600061200182611fd6565b9050919050565b61201181611ff6565b82525050565b600060208201905061202c6000830184612008565b92915050565b61203b81611ff6565b811461204657600080fd5b50565b60008135905061205881612032565b92915050565b6000806040838503121561207557612074611dfc565b5b600061208385828601612049565b925050602061209485828601611f94565b9150509250929050565b6000806000606084860312156120b7576120b6611dfc565b5b60006120c586828701612049565b93505060206120d686828701612049565b92505060406120e786828701611f94565b9150509250925092565b60006020828403121561210757612106611dfc565b5b600061211584828501612049565b91505092915050565b61212781611f73565b82525050565b6000602082019050612142600083018461211e565b92915050565b61215181611e8b565b811461215c57600080fd5b50565b60008135905061216e81612148565b92915050565b6000806040838503121561218b5761218a611dfc565b5b600061219985828601612049565b92505060206121aa8582860161215f565b9150509250929050565b600080fd5b600080fd5b7f4e487b7100000000000000000000000000000000000000000000000000000000600052604160045260246000fd5b6121f682611f07565b810181811067ffffffffffffffff82111715612215576122146121be565b5b80604052505050565b6000612228611df2565b905061223482826121ed565b919050565b600067ffffffffffffffff821115612254576122536121be565b5b61225d82611f07565b9050602081019050919050565b82818337600083830152505050565b600061228c61228784612239565b61221e565b9050828152602081018484840111156122a8576122a76121b9565b5b6122b384828561226a565b509392505050565b600082601f8301126122d0576122cf6121b4565b5b81356122e0848260208601612279565b91505092915050565b6000806000806080858703121561230357612302611dfc565b5b600061231187828801612049565b945050602061232287828801612049565b935050604061233387828801611f94565b925050606085013567ffffffffffffffff81111561235457612353611e01565b5b612360878288016122bb565b91505092959194509250565b6000806040838503121561238357612382611dfc565b5b600061239185828601612049565b92505060206123a285828601612049565b9150509250929050565b600067ffffffffffffffff8211156123c7576123c66121be565b5b6123d082611f07565b9050602081019050919050565b60006123f06123eb846123ac565b61221e565b90508281526020810184848401111561240c5761240b6121b9565b5b61241784828561226a565b509392505050565b600082601f830112612434576124336121b4565b5b81356124448482602086016123dd565b91505092915050565b6000806040838503121561246457612463611dfc565b5b600061247285828601612049565b925050602083013567ffffffffffffffff81111561249357612492611e01565b5b61249f8582860161241f565b9150509250929050565b6000819050919050565b60006124ce6124c96124c484611fd6565b6124a9565b611fd6565b9050919050565b60006124e0826124b3565b9050919050565b60006124f2826124d5565b9050919050565b612502816124e7565b82525050565b600060208201905061251d60008301846124f9565b92915050565b7f4e487b7100000000000000000000000000000000000000000000000000000000600052602260045260246000fd5b6000600282049050600182168061256a57607f821691505b60208210810361257d5761257c612523565b5b50919050565b7f4552433732313a20617070726f76616c20746f2063757272656e74206f776e6560008201527f7200000000000000000000000000000000000000000000000000000000000000602082015250565b60006125df602183611ecc565b91506125ea82612583565b604082019050919050565b6000602082019050818103600083015261260e816125d2565b9050919050565b7f4552433732313a20617070726f76652063616c6c6572206973206e6f7420746f60008201527f6b656e206f776e6572206f7220617070726f76656420666f7220616c6c000000602082015250565b6000612671603d83611ecc565b915061267c82612615565b604082019050919050565b600060208201905081810360008301526126a081612664565b9050919050565b7f4552433732313a2063616c6c6572206973206e6f7420746f6b656e206f776e6560008201527f72206f7220617070726f76656400000000000000000000000000000000000000602082015250565b6000612703602d83611ecc565b915061270e826126a7565b604082019050919050565b60006020820190508181036000830152612732816126f6565b9050919050565b7f4552433732313a20696e76616c696420746f6b656e2049440000000000000000600082015250565b600061276f601883611ecc565b915061277a82612739565b602082019050919050565b6000602082019050818103600083015261279e81612762565b9050919050565b7f4552433732313a2061646472657373207a65726f206973206e6f74206120766160008201527f6c6964206f776e65720000000000000000000000000000000000000000000000602082015250565b6000612801602983611ecc565b915061280c826127a5565b604082019050919050565b60006020820190508181036000830152612830816127f4565b9050919050565b600081905092915050565b600061284d82611ec1565b6128578185612837565b9350612867818560208601611edd565b80840191505092915050565b600061287f8285612842565b915061288b8284612842565b91508190509392505050565b60006060820190506128ac6000830186612008565b6128b96020830185612008565b6128c6604083018461211e565b949350505050565b6000815190506128dd81612148565b92915050565b6000602082840312156128f9576128f8611dfc565b5b6000612907848285016128ce565b91505092915050565b7f4f776e61626c653a206e6577206f776e657220697320746865207a65726f206160008201527f6464726573730000000000000000000000000000000000000000000000000000602082015250565b600061296c602683611ecc565b915061297782612910565b604082019050919050565b6000602082019050818103600083015261299b8161295f565b9050919050565b7f4552433732313a207472616e736665722066726f6d20696e636f72726563742060008201527f6f776e6572000000000000000000000000000000000000000000000000000000602082015250565b60006129fe602583611ecc565b9150612a09826129a2565b604082019050919050565b60006020820190508181036000830152612a2d816129f1565b9050919050565b7f4552433732313a207472616e7366657220746f20746865207a65726f2061646460008201527f7265737300000000000000000000000000000000000000000000000000000000602082015250565b6000612a90602483611ecc565b9150612a9b82612a34565b604082019050919050565b60006020820190508181036000830152612abf81612a83565b9050919050565b7f4f776e61626c653a2063616c6c6572206973206e6f7420746865206f776e6572600082015250565b6000612afc602083611ecc565b9150612b0782612ac6565b602082019050919050565b60006020820190508181036000830152612b2b81612aef565b9050919050565b7f4552433732313a20617070726f766520746f2063616c6c657200000000000000600082015250565b6000612b68601983611ecc565b9150612b7382612b32565b602082019050919050565b60006020820190508181036000830152612b9781612b5b565b9050919050565b7f4552433732313a207472616e7366657220746f206e6f6e20455243373231526560008201527f63656976657220696d706c656d656e7465720000000000000000000000000000602082015250565b6000612bfa603283611ecc565b9150612c0582612b9e565b604082019050919050565b60006020820190508181036000830152612c2981612bed565b9050919050565b7f4552433732313a206d696e7420746f20746865207a65726f2061646472657373600082015250565b6000612c66602083611ecc565b9150612c7182612c30565b602082019050919050565b60006020820190508181036000830152612c9581612c59565b9050919050565b7f4552433732313a20746f6b656e20616c7265616479206d696e74656400000000600082015250565b6000612cd2601c83611ecc565b9150612cdd82612c9c565b602082019050919050565b60006020820190508181036000830152612d0181612cc5565b9050919050565b7f45524337323155524953746f726167653a2055524920736574206f66206e6f6e60008201527f6578697374656e7420746f6b656e000000000000000000000000000000000000602082015250565b6000612d64602e83611ecc565b9150612d6f82612d08565b604082019050919050565b60006020820190508181036000830152612d9381612d57565b9050919050565b60008190508160005260206000209050919050565b60006020601f8301049050919050565b600082821b905092915050565b600060088302612dfc7fffffffffffffffffffffffffffffffffffffffffffffffffffffffffffffffff82612dbf565b612e068683612dbf565b95508019841693508086168417925050509392505050565b6000612e39612e34612e2f84611f73565b6124a9565b611f73565b9050919050565b6000819050919050565b612e5383612e1e565b612e67612e5f82612e40565b848454612dcc565b825550505050565b600090565b612e7c612e6f565b612e87818484612e4a565b505050565b5b81811015612eab57612ea0600082612e74565b600181019050612e8d565b5050565b601f821115612ef057612ec181612d9a565b612eca84612daf565b81016020851015612ed9578190505b612eed612ee585612daf565b830182612e8c565b50505b505050565b600082821c905092915050565b6000612f1360001984600802612ef5565b1980831691505092915050565b6000612f2c8383612f02565b9150826002028217905092915050565b612f4582611ec1565b67ffffffffffffffff811115612f5e57612f5d6121be565b5b612f688254612552565b612f73828285612eaf565b600060209050601f831160018114612fa65760008415612f94578287015190505b612f9e8582612f20565b865550613006565b601f198416612fb486612d9a565b60005b82811015612fdc57848901518255600182019150602085019450602081019050612fb7565b86831015612ff95784890151612ff5601f891682612f02565b8355505b6001600288020188555050505b505050505050565b60008151905061301d81611f7d565b92915050565b60006020828403121561303957613038611dfc565b5b60006130478482850161300e565b91505092915050565b7f4e6f7420656e6f75676820746f6b656e7320696e20636f6e747261637420746f60008201527f2072657761726420757365720000000000000000000000000000000000000000602082015250565b60006130ac602c83611ecc565b91506130b782613050565b604082019050919050565b600060208201905081810360008301526130db8161309f565b9050919050565b60006040820190506130f76000830185612008565b613104602083018461211e565b9392505050565b600081519050919050565b600082825260208201905092915050565b60006131328261310b565b61313c8185613116565b935061314c818560208601611edd565b61315581611f07565b840191505092915050565b60006080820190506131756000830187612008565b6131826020830186612008565b61318f604083018561211e565b81810360608301526131a18184613127565b905095945050505050565b6000815190506131bb81611e32565b92915050565b6000602082840312156131d7576131d6611dfc565b5b60006131e5848285016131ac565b91505092915050565b7f4e487b7100000000000000000000000000000000000000000000000000000000600052601260045260246000fdfea26469706673582212206128d8657ccca2e738479078e4485a0a6b7b0ca76678b87efa9ec069e251aa9f64736f6c63430008130033",
  "immutableReferences": {},
  "source": "// SPDX-License-Identifier: MIT\npragma solidity ^0.8.17;\n\nimport \"@openzeppelin/contracts/token/ERC721/extensions/ERC721URIStorage.sol\";\nimport \"@openzeppelin/contracts/utils/Counters.sol\";\nimport \"@openzeppelin/contracts/access/Ownable.sol\";\nimport \"@openzeppelin/contracts/token/ERC20/IERC20.sol\";\n\ncontract MyNFT is ERC721URIStorage, Ownable {\n    using Counters for Counters.Counter;\n    Counters.Counter private _tokenIds;\n\n    IERC20 public rewardToken;\n\n    constructor(IERC20 _rewardToken) public ERC721(\"MyNFT\", \"NFT\") {\n        rewardToken = _rewardToken;\n    }\n\n    function mintNFT(address recipient, string memory tokenURI)\n        public onlyOwner\n        returns (uint256)\n    {\n        _tokenIds.increment();\n\n        uint256 newItemId = _tokenIds.current();\n        _mint(recipient, newItemId);\n        _setTokenURI(newItemId, tokenURI);\n\n        // Reward the user with ERC20 tokens\n        rewardUser(recipient);\n\n        return newItemId;\n    }\n\n    function rewardUser(address user) internal {\n        // Define the reward amount. It could also be variable.\n        uint256 rewardAmount = 1 * 10**18; // This assumes that your token has 18 decimals, change it accordingly.\n\n        // Check if the contract has enough balance to give the reward.\n        require(rewardToken.balanceOf(address(this)) >= rewardAmount, \"Not enough tokens in contract to reward user\");\n\n        // Transfer the reward to the user\n        rewardToken.transfer(user, rewardAmount);\n    }\n\n    function depositTokens(uint256 amount) public {\n        // Transfer tokens from the caller to this contract\n        rewardToken.transferFrom(msg.sender, address(this), amount);\n    }\n}\n",
  "sourcePath": "/home/ngu202/workspace/nft-testing-prof/nft-market-on-AWS/net_Blockchain/contracts/MyNFT.sol",
  "compiler": {
    "name": "solc",
    "version": "0.8.19+commit.7dd6d404.Emscripten.clang"
  },
  "schemaVersion": "3.4.13",
  "updatedAt": "2023-05-26T13:14:31.726Z",
  "networkType": "ethereum",
  "devdoc": {
    "events": {
      "Approval(address,address,uint256)": {
        "details": "Emitted when `owner` enables `approved` to manage the `tokenId` token."
      },
      "ApprovalForAll(address,address,bool)": {
        "details": "Emitted when `owner` enables or disables (`approved`) `operator` to manage all of its assets."
      },
      "Transfer(address,address,uint256)": {
        "details": "Emitted when `tokenId` token is transferred from `from` to `to`."
      }
    },
    "kind": "dev",
    "methods": {
      "approve(address,uint256)": {
        "details": "See {IERC721-approve}."
      },
      "balanceOf(address)": {
        "details": "See {IERC721-balanceOf}."
      },
      "getApproved(uint256)": {
        "details": "See {IERC721-getApproved}."
      },
      "isApprovedForAll(address,address)": {
        "details": "See {IERC721-isApprovedForAll}."
      },
      "name()": {
        "details": "See {IERC721Metadata-name}."
      },
      "owner()": {
        "details": "Returns the address of the current owner."
      },
      "ownerOf(uint256)": {
        "details": "See {IERC721-ownerOf}."
      },
      "renounceOwnership()": {
        "details": "Leaves the contract without owner. It will not be possible to call `onlyOwner` functions anymore. Can only be called by the current owner. NOTE: Renouncing ownership will leave the contract without an owner, thereby removing any functionality that is only available to the owner."
      },
      "safeTransferFrom(address,address,uint256)": {
        "details": "See {IERC721-safeTransferFrom}."
      },
      "safeTransferFrom(address,address,uint256,bytes)": {
        "details": "See {IERC721-safeTransferFrom}."
      },
      "setApprovalForAll(address,bool)": {
        "details": "See {IERC721-setApprovalForAll}."
      },
      "supportsInterface(bytes4)": {
        "details": "See {IERC165-supportsInterface}."
      },
      "symbol()": {
        "details": "See {IERC721Metadata-symbol}."
      },
      "tokenURI(uint256)": {
        "details": "See {IERC721Metadata-tokenURI}."
      },
      "transferFrom(address,address,uint256)": {
        "details": "See {IERC721-transferFrom}."
      },
      "transferOwnership(address)": {
        "details": "Transfers ownership of the contract to a new account (`newOwner`). Can only be called by the current owner."
      }
    },
    "version": 1
  },
  "userdoc": {
    "kind": "user",
    "methods": {},
    "version": 1
  }
}