{
  "contractName": "MyNFT",
  "abi": [
    {
      "inputs": [
        {
          "internalType": "contract IERC20",
          "name": "_rewardToken",
          "type": "address"
        }
      ],
      "stateMutability": "nonpayable",
      "type": "constructor"
    },
    {
      "anonymous": false,
      "inputs": [
        {
          "indexed": true,
          "internalType": "address",
          "name": "owner",
          "type": "address"
        },
        {
          "indexed": true,
          "internalType": "address",
          "name": "approved",
          "type": "address"
        },
        {
          "indexed": true,
          "internalType": "uint256",
          "name": "tokenId",
          "type": "uint256"
        }
      ],
      "name": "Approval",
      "type": "event"
    },
    {
      "anonymous": false,
      "inputs": [
        {
          "indexed": true,
          "internalType": "address",
          "name": "owner",
          "type": "address"
        },
        {
          "indexed": true,
          "internalType": "address",
          "name": "operator",
          "type": "address"
        },
        {
          "indexed": false,
          "internalType": "bool",
          "name": "approved",
          "type": "bool"
        }
      ],
      "name": "ApprovalForAll",
      "type": "event"
    },
    {
      "anonymous": false,
      "inputs": [
        {
          "indexed": false,
          "internalType": "uint256",
          "name": "_fromTokenId",
          "type": "uint256"
        },
        {
          "indexed": false,
          "internalType": "uint256",
          "name": "_toTokenId",
          "type": "uint256"
        }
      ],
      "name": "BatchMetadataUpdate",
      "type": "event"
    },
    {
      "anonymous": false,
      "inputs": [
        {
          "indexed": false,
          "internalType": "uint256",
          "name": "_tokenId",
          "type": "uint256"
        }
      ],
      "name": "MetadataUpdate",
      "type": "event"
    },
    {
      "anonymous": false,
      "inputs": [
        {
          "indexed": true,
          "internalType": "address",
          "name": "previousOwner",
          "type": "address"
        },
        {
          "indexed": true,
          "internalType": "address",
          "name": "newOwner",
          "type": "address"
        }
      ],
      "name": "OwnershipTransferred",
      "type": "event"
    },
    {
      "anonymous": false,
      "inputs": [
        {
          "indexed": true,
          "internalType": "address",
          "name": "from",
          "type": "address"
        },
        {
          "indexed": true,
          "internalType": "address",
          "name": "to",
          "type": "address"
        },
        {
          "indexed": true,
          "internalType": "uint256",
          "name": "tokenId",
          "type": "uint256"
        }
      ],
      "name": "Transfer",
      "type": "event"
    },
    {
      "inputs": [
        {
          "internalType": "address",
          "name": "to",
          "type": "address"
        },
        {
          "internalType": "uint256",
          "name": "tokenId",
          "type": "uint256"
        }
      ],
      "name": "approve",
      "outputs": [],
      "stateMutability": "nonpayable",
      "type": "function"
    },
    {
      "inputs": [
        {
          "internalType": "address",
          "name": "owner",
          "type": "address"
        }
      ],
      "name": "balanceOf",
      "outputs": [
        {
          "internalType": "uint256",
          "name": "",
          "type": "uint256"
        }
      ],
      "stateMutability": "view",
      "type": "function",
      "constant": true
    },
    {
      "inputs": [
        {
          "internalType": "uint256",
          "name": "tokenId",
          "type": "uint256"
        }
      ],
      "name": "getApproved",
      "outputs": [
        {
          "internalType": "address",
          "name": "",
          "type": "address"
        }
      ],
      "stateMutability": "view",
      "type": "function",
      "constant": true
    },
    {
      "inputs": [
        {
          "internalType": "address",
          "name": "owner",
          "type": "address"
        },
        {
          "internalType": "address",
          "name": "operator",
          "type": "address"
        }
      ],
      "name": "isApprovedForAll",
      "outputs": [
        {
          "internalType": "bool",
          "name": "",
          "type": "bool"
        }
      ],
      "stateMutability": "view",
      "type": "function",
      "constant": true
    },
    {
      "inputs": [],
      "name": "name",
      "outputs": [
        {
          "internalType": "string",
          "name": "",
          "type": "string"
        }
      ],
      "stateMutability": "view",
      "type": "function",
      "constant": true
    },
    {
      "inputs": [],
      "name": "owner",
      "outputs": [
        {
          "internalType": "address",
          "name": "",
          "type": "address"
        }
      ],
      "stateMutability": "view",
      "type": "function",
      "constant": true
    },
    {
      "inputs": [
        {
          "internalType": "uint256",
          "name": "tokenId",
          "type": "uint256"
        }
      ],
      "name": "ownerOf",
      "outputs": [
        {
          "internalType": "address",
          "name": "",
          "type": "address"
        }
      ],
      "stateMutability": "view",
      "type": "function",
      "constant": true
    },
    {
      "inputs": [],
      "name": "renounceOwnership",
      "outputs": [],
      "stateMutability": "nonpayable",
      "type": "function"
    },
    {
      "inputs": [],
      "name": "rewardToken",
      "outputs": [
        {
          "internalType": "contract IERC20",
          "name": "",
          "type": "address"
        }
      ],
      "stateMutability": "view",
      "type": "function",
      "constant": true
    },
    {
      "inputs": [
        {
          "internalType": "address",
          "name": "from",
          "type": "address"
        },
        {
          "internalType": "address",
          "name": "to",
          "type": "address"
        },
        {
          "internalType": "uint256",
          "name": "tokenId",
          "type": "uint256"
        }
      ],
      "name": "safeTransferFrom",
      "outputs": [],
      "stateMutability": "nonpayable",
      "type": "function"
    },
    {
      "inputs": [
        {
          "internalType": "address",
          "name": "from",
          "type": "address"
        },
        {
          "internalType": "address",
          "name": "to",
          "type": "address"
        },
        {
          "internalType": "uint256",
          "name": "tokenId",
          "type": "uint256"
        },
        {
          "internalType": "bytes",
          "name": "data",
          "type": "bytes"
        }
      ],
      "name": "safeTransferFrom",
      "outputs": [],
      "stateMutability": "nonpayable",
      "type": "function"
    },
    {
      "inputs": [
        {
          "internalType": "address",
          "name": "operator",
          "type": "address"
        },
        {
          "internalType": "bool",
          "name": "approved",
          "type": "bool"
        }
      ],
      "name": "setApprovalForAll",
      "outputs": [],
      "stateMutability": "nonpayable",
      "type": "function"
    },
    {
      "inputs": [
        {
          "internalType": "bytes4",
          "name": "interfaceId",
          "type": "bytes4"
        }
      ],
      "name": "supportsInterface",
      "outputs": [
        {
          "internalType": "bool",
          "name": "",
          "type": "bool"
        }
      ],
      "stateMutability": "view",
      "type": "function",
      "constant": true
    },
    {
      "inputs": [],
      "name": "symbol",
      "outputs": [
        {
          "internalType": "string",
          "name": "",
          "type": "string"
        }
      ],
      "stateMutability": "view",
      "type": "function",
      "constant": true
    },
    {
      "inputs": [
        {
          "internalType": "uint256",
          "name": "tokenId",
          "type": "uint256"
        }
      ],
      "name": "tokenURI",
      "outputs": [
        {
          "internalType": "string",
          "name": "",
          "type": "string"
        }
      ],
      "stateMutability": "view",
      "type": "function",
      "constant": true
    },
    {
      "inputs": [
        {
          "internalType": "address",
          "name": "from",
          "type": "address"
        },
        {
          "internalType": "address",
          "name": "to",
          "type": "address"
        },
        {
          "internalType": "uint256",
          "name": "tokenId",
          "type": "uint256"
        }
      ],
      "name": "transferFrom",
      "outputs": [],
      "stateMutability": "nonpayable",
      "type": "function"
    },
    {
      "inputs": [
        {
          "internalType": "address",
          "name": "newOwner",
          "type": "address"
        }
      ],
      "name": "transferOwnership",
      "outputs": [],
      "stateMutability": "nonpayable",
      "type": "function"
    },
    {
      "inputs": [
        {
          "internalType": "address",
          "name": "recipient",
          "type": "address"
        },
        {
          "internalType": "string",
          "name": "tokenURI",
          "type": "string"
        }
      ],
      "name": "mintNFT",
      "outputs": [
        {
          "internalType": "uint256",
          "name": "",
          "type": "uint256"
        }
      ],
      "stateMutability": "nonpayable",
      "type": "function"
    }
  ],
  "bytecode": "0x60806040523480156200001157600080fd5b50604051620038073803806200380783398181016040528101906200003791906200027d565b6040518060400160405280600581526020017f4d794e46540000000000000000000000000000000000000000000000000000008152506040518060400160405280600381526020017f4e465400000000000000000000000000000000000000000000000000000000008152508160009081620000b4919062000529565b508060019081620000c6919062000529565b505050620000e9620000dd6200013160201b60201c565b6200013960201b60201c565b80600960006101000a81548173ffffffffffffffffffffffffffffffffffffffff021916908373ffffffffffffffffffffffffffffffffffffffff1602179055505062000610565b600033905090565b6000600760009054906101000a900473ffffffffffffffffffffffffffffffffffffffff16905081600760006101000a81548173ffffffffffffffffffffffffffffffffffffffff021916908373ffffffffffffffffffffffffffffffffffffffff1602179055508173ffffffffffffffffffffffffffffffffffffffff168173ffffffffffffffffffffffffffffffffffffffff167f8be0079c531659141344cd1fd0a4f28419497f9722a3daafe3b4186f6b6457e060405160405180910390a35050565b600080fd5b600073ffffffffffffffffffffffffffffffffffffffff82169050919050565b6000620002318262000204565b9050919050565b6000620002458262000224565b9050919050565b620002578162000238565b81146200026357600080fd5b50565b60008151905062000277816200024c565b92915050565b600060208284031215620002965762000295620001ff565b5b6000620002a68482850162000266565b91505092915050565b600081519050919050565b7f4e487b7100000000000000000000000000000000000000000000000000000000600052604160045260246000fd5b7f4e487b7100000000000000000000000000000000000000000000000000000000600052602260045260246000fd5b600060028204905060018216806200033157607f821691505b602082108103620003475762000346620002e9565b5b50919050565b60008190508160005260206000209050919050565b60006020601f8301049050919050565b600082821b905092915050565b600060088302620003b17fffffffffffffffffffffffffffffffffffffffffffffffffffffffffffffffff8262000372565b620003bd868362000372565b95508019841693508086168417925050509392505050565b6000819050919050565b6000819050919050565b60006200040a62000404620003fe84620003d5565b620003df565b620003d5565b9050919050565b6000819050919050565b6200042683620003e9565b6200043e620004358262000411565b8484546200037f565b825550505050565b600090565b6200045562000446565b620004628184846200041b565b505050565b5b818110156200048a576200047e6000826200044b565b60018101905062000468565b5050565b601f821115620004d957620004a3816200034d565b620004ae8462000362565b81016020851015620004be578190505b620004d6620004cd8562000362565b83018262000467565b50505b505050565b600082821c905092915050565b6000620004fe60001984600802620004de565b1980831691505092915050565b6000620005198383620004eb565b9150826002028217905092915050565b6200053482620002af565b67ffffffffffffffff81111562000550576200054f620002ba565b5b6200055c825462000318565b620005698282856200048e565b600060209050601f831160018114620005a157600084156200058c578287015190505b6200059885826200050b565b86555062000608565b601f198416620005b1866200034d565b60005b82811015620005db57848901518255600182019150602085019450602081019050620005b4565b86831015620005fb5784890151620005f7601f891682620004eb565b8355505b6001600288020188555050505b505050505050565b6131e780620006206000396000f3fe608060405234801561001057600080fd5b50600436106101165760003560e01c80638da5cb5b116100a2578063c87b56dd11610071578063c87b56dd146102cb578063e985e9c5146102fb578063eacabe141461032b578063f2fde38b1461035b578063f7c618c11461037757610116565b80638da5cb5b1461025757806395d89b4114610275578063a22cb46514610293578063b88d4fde146102af57610116565b806323b872dd116100e957806323b872dd146101b557806342842e0e146101d15780636352211e146101ed57806370a082311461021d578063715018a61461024d57610116565b806301ffc9a71461011b57806306fdde031461014b578063081812fc14610169578063095ea7b314610199575b600080fd5b61013560048036038101906101309190611e29565b610395565b6040516101429190611e71565b60405180910390f35b6101536103f6565b6040516101609190611f1c565b60405180910390f35b610183600480360381019061017e9190611f74565b610488565b6040516101909190611fe2565b60405180910390f35b6101b360048036038101906101ae9190612029565b6104ce565b005b6101cf60048036038101906101ca9190612069565b6105e5565b005b6101eb60048036038101906101e69190612069565b610645565b005b61020760048036038101906102029190611f74565b610665565b6040516102149190611fe2565b60405180910390f35b610237600480360381019061023291906120bc565b6106eb565b60405161024491906120f8565b60405180910390f35b6102556107a2565b005b61025f6107b6565b60405161026c9190611fe2565b60405180910390f35b61027d6107e0565b60405161028a9190611f1c565b60405180910390f35b6102ad60048036038101906102a8919061213f565b610872565b005b6102c960048036038101906102c491906122b4565b610888565b005b6102e560048036038101906102e09190611f74565b6108ea565b6040516102f29190611f1c565b60405180910390f35b61031560048036038101906103109190612337565b6109fc565b6040516103229190611e71565b60405180910390f35b61034560048036038101906103409190612418565b610a90565b60405161035291906120f8565b60405180910390f35b610375600480360381019061037091906120bc565b610ad9565b005b61037f610b5c565b60405161038c91906124d3565b60405180910390f35b6000634906490660e01b7bffffffffffffffffffffffffffffffffffffffffffffffffffffffff1916827bffffffffffffffffffffffffffffffffffffffffffffffffffffffff191614806103ef57506103ee82610b82565b5b9050919050565b6060600080546104059061251d565b80601f01602080910402602001604051908101604052809291908181526020018280546104319061251d565b801561047e5780601f106104535761010080835404028352916020019161047e565b820191906000526020600020905b81548152906001019060200180831161046157829003601f168201915b5050505050905090565b600061049382610c64565b6004600083815260200190815260200160002060009054906101000a900473ffffffffffffffffffffffffffffffffffffffff169050919050565b60006104d982610665565b90508073ffffffffffffffffffffffffffffffffffffffff168373ffffffffffffffffffffffffffffffffffffffff1603610549576040517f08c379a0000000000000000000000000000000000000000000000000000000008152600401610540906125c0565b60405180910390fd5b8073ffffffffffffffffffffffffffffffffffffffff16610568610caf565b73ffffffffffffffffffffffffffffffffffffffff161480610597575061059681610591610caf565b6109fc565b5b6105d6576040517f08c379a00000000000000000000000000000000000000000000000000000000081526004016105cd90612652565b60405180910390fd5b6105e08383610cb7565b505050565b6105f66105f0610caf565b82610d70565b610635576040517f08c379a000000000000000000000000000000000000000000000000000000000815260040161062c906126e4565b60405180910390fd5b610640838383610e05565b505050565b61066083838360405180602001604052806000815250610888565b505050565b600080610671836110fe565b9050600073ffffffffffffffffffffffffffffffffffffffff168173ffffffffffffffffffffffffffffffffffffffff16036106e2576040517f08c379a00000000000000000000000000000000000000000000000000000000081526004016106d990612750565b60405180910390fd5b80915050919050565b60008073ffffffffffffffffffffffffffffffffffffffff168273ffffffffffffffffffffffffffffffffffffffff160361075b576040517f08c379a0000000000000000000000000000000000000000000000000000000008152600401610752906127e2565b60405180910390fd5b600360008373ffffffffffffffffffffffffffffffffffffffff1673ffffffffffffffffffffffffffffffffffffffff168152602001908152602001600020549050919050565b6107aa61113b565b6107b460006111b9565b565b6000600760009054906101000a900473ffffffffffffffffffffffffffffffffffffffff16905090565b6060600180546107ef9061251d565b80601f016020809104026020016040519081016040528092919081815260200182805461081b9061251d565b80156108685780601f1061083d57610100808354040283529160200191610868565b820191906000526020600020905b81548152906001019060200180831161084b57829003601f168201915b5050505050905090565b61088461087d610caf565b838361127f565b5050565b610899610893610caf565b83610d70565b6108d8576040517f08c379a00000000000000000000000000000000000000000000000000000000081526004016108cf906126e4565b60405180910390fd5b6108e4848484846113eb565b50505050565b60606108f582610c64565b60006006600084815260200190815260200160002080546109159061251d565b80601f01602080910402602001604051908101604052809291908181526020018280546109419061251d565b801561098e5780601f106109635761010080835404028352916020019161098e565b820191906000526020600020905b81548152906001019060200180831161097157829003601f168201915b50505050509050600061099f611447565b905060008151036109b45781925050506109f7565b6000825111156109e95780826040516020016109d192919061283e565b604051602081830303815290604052925050506109f7565b6109f28461145e565b925050505b919050565b6000600560008473ffffffffffffffffffffffffffffffffffffffff1673ffffffffffffffffffffffffffffffffffffffff16815260200190815260200160002060008373ffffffffffffffffffffffffffffffffffffffff1673ffffffffffffffffffffffffffffffffffffffff16815260200190815260200160002060009054906101000a900460ff16905092915050565b6000610a9a61113b565b610aa460086114c6565b6000610ab060086114dc565b9050610abc84826114ea565b610ac68184611707565b610acf846117ab565b8091505092915050565b610ae161113b565b600073ffffffffffffffffffffffffffffffffffffffff168173ffffffffffffffffffffffffffffffffffffffff1603610b50576040517f08c379a0000000000000000000000000000000000000000000000000000000008152600401610b47906128d4565b60405180910390fd5b610b59816111b9565b50565b600960009054906101000a900473ffffffffffffffffffffffffffffffffffffffff1681565b60007f80ac58cd000000000000000000000000000000000000000000000000000000007bffffffffffffffffffffffffffffffffffffffffffffffffffffffff1916827bffffffffffffffffffffffffffffffffffffffffffffffffffffffff19161480610c4d57507f5b5e139f000000000000000000000000000000000000000000000000000000007bffffffffffffffffffffffffffffffffffffffffffffffffffffffff1916827bffffffffffffffffffffffffffffffffffffffffffffffffffffffff1916145b80610c5d5750610c5c8261193b565b5b9050919050565b610c6d816119a5565b610cac576040517f08c379a0000000000000000000000000000000000000000000000000000000008152600401610ca390612750565b60405180910390fd5b50565b600033905090565b816004600083815260200190815260200160002060006101000a81548173ffffffffffffffffffffffffffffffffffffffff021916908373ffffffffffffffffffffffffffffffffffffffff160217905550808273ffffffffffffffffffffffffffffffffffffffff16610d2a83610665565b73ffffffffffffffffffffffffffffffffffffffff167f8c5be1e5ebec7d5bd14f71427d1e84f3dd0314c0f7b2291e5b200ac8c7c3b92560405160405180910390a45050565b600080610d7c83610665565b90508073ffffffffffffffffffffffffffffffffffffffff168473ffffffffffffffffffffffffffffffffffffffff161480610dbe5750610dbd81856109fc565b5b80610dfc57508373ffffffffffffffffffffffffffffffffffffffff16610de484610488565b73ffffffffffffffffffffffffffffffffffffffff16145b91505092915050565b8273ffffffffffffffffffffffffffffffffffffffff16610e2582610665565b73ffffffffffffffffffffffffffffffffffffffff1614610e7b576040517f08c379a0000000000000000000000000000000000000000000000000000000008152600401610e7290612966565b60405180910390fd5b600073ffffffffffffffffffffffffffffffffffffffff168273ffffffffffffffffffffffffffffffffffffffff1603610eea576040517f08c379a0000000000000000000000000000000000000000000000000000000008152600401610ee1906129f8565b60405180910390fd5b610ef783838360016119e6565b8273ffffffffffffffffffffffffffffffffffffffff16610f1782610665565b73ffffffffffffffffffffffffffffffffffffffff1614610f6d576040517f08c379a0000000000000000000000000000000000000000000000000000000008152600401610f6490612966565b60405180910390fd5b6004600082815260200190815260200160002060006101000a81549073ffffffffffffffffffffffffffffffffffffffff02191690556001600360008573ffffffffffffffffffffffffffffffffffffffff1673ffffffffffffffffffffffffffffffffffffffff168152602001908152602001600020600082825403925050819055506001600360008473ffffffffffffffffffffffffffffffffffffffff1673ffffffffffffffffffffffffffffffffffffffff16815260200190815260200160002060008282540192505081905550816002600083815260200190815260200160002060006101000a81548173ffffffffffffffffffffffffffffffffffffffff021916908373ffffffffffffffffffffffffffffffffffffffff160217905550808273ffffffffffffffffffffffffffffffffffffffff168473ffffffffffffffffffffffffffffffffffffffff167fddf252ad1be2c89b69c2b068fc378daa952ba7f163c4a11628f55a4df523b3ef60405160405180910390a46110f983838360016119ec565b505050565b60006002600083815260200190815260200160002060009054906101000a900473ffffffffffffffffffffffffffffffffffffffff169050919050565b611143610caf565b73ffffffffffffffffffffffffffffffffffffffff166111616107b6565b73ffffffffffffffffffffffffffffffffffffffff16146111b7576040517f08c379a00000000000000000000000000000000000000000000000000000000081526004016111ae90612a64565b60405180910390fd5b565b6000600760009054906101000a900473ffffffffffffffffffffffffffffffffffffffff16905081600760006101000a81548173ffffffffffffffffffffffffffffffffffffffff021916908373ffffffffffffffffffffffffffffffffffffffff1602179055508173ffffffffffffffffffffffffffffffffffffffff168173ffffffffffffffffffffffffffffffffffffffff167f8be0079c531659141344cd1fd0a4f28419497f9722a3daafe3b4186f6b6457e060405160405180910390a35050565b8173ffffffffffffffffffffffffffffffffffffffff168373ffffffffffffffffffffffffffffffffffffffff16036112ed576040517f08c379a00000000000000000000000000000000000000000000000000000000081526004016112e490612ad0565b60405180910390fd5b80600560008573ffffffffffffffffffffffffffffffffffffffff1673ffffffffffffffffffffffffffffffffffffffff16815260200190815260200160002060008473ffffffffffffffffffffffffffffffffffffffff1673ffffffffffffffffffffffffffffffffffffffff16815260200190815260200160002060006101000a81548160ff0219169083151502179055508173ffffffffffffffffffffffffffffffffffffffff168373ffffffffffffffffffffffffffffffffffffffff167f17307eab39ab6107e8899845ad3d59bd9653f200f220920489ca2b5937696c31836040516113de9190611e71565b60405180910390a3505050565b6113f6848484610e05565b611402848484846119f2565b611441576040517f08c379a000000000000000000000000000000000000000000000000000000000815260040161143890612b62565b60405180910390fd5b50505050565b606060405180602001604052806000815250905090565b606061146982610c64565b6000611473611447565b9050600081511161149357604051806020016040528060008152506114be565b8061149d84611b79565b6040516020016114ae92919061283e565b6040516020818303038152906040525b915050919050565b6001816000016000828254019250508190555050565b600081600001549050919050565b600073ffffffffffffffffffffffffffffffffffffffff168273ffffffffffffffffffffffffffffffffffffffff1603611559576040517f08c379a000000000000000000000000000000000000000000000000000000000815260040161155090612bce565b60405180910390fd5b611562816119a5565b156115a2576040517f08c379a000000000000000000000000000000000000000000000000000000000815260040161159990612c3a565b60405180910390fd5b6115b06000838360016119e6565b6115b9816119a5565b156115f9576040517f08c379a00000000000000000000000000000000000000000000000000000000081526004016115f090612c3a565b60405180910390fd5b6001600360008473ffffffffffffffffffffffffffffffffffffffff1673ffffffffffffffffffffffffffffffffffffffff16815260200190815260200160002060008282540192505081905550816002600083815260200190815260200160002060006101000a81548173ffffffffffffffffffffffffffffffffffffffff021916908373ffffffffffffffffffffffffffffffffffffffff160217905550808273ffffffffffffffffffffffffffffffffffffffff16600073ffffffffffffffffffffffffffffffffffffffff167fddf252ad1be2c89b69c2b068fc378daa952ba7f163c4a11628f55a4df523b3ef60405160405180910390a46117036000838360016119ec565b5050565b611710826119a5565b61174f576040517f08c379a000000000000000000000000000000000000000000000000000000000815260040161174690612ccc565b60405180910390fd5b8060066000848152602001908152602001600020908161176f9190612e8e565b507ff8e1a15aba9398e019f0b49df1a4fde98ee17ae345cb5f6b5e2c27f5033e8ce78260405161179f91906120f8565b60405180910390a15050565b6000670de0b6b3a7640000905080600960009054906101000a900473ffffffffffffffffffffffffffffffffffffffff1673ffffffffffffffffffffffffffffffffffffffff166370a08231306040518263ffffffff1660e01b81526004016118149190611fe2565b602060405180830381865afa158015611831573d6000803e3d6000fd5b505050506040513d601f19601f820116820180604052508101906118559190612f75565b1015611896576040517f08c379a000000000000000000000000000000000000000000000000000000000815260040161188d90613014565b60405180910390fd5b600960009054906101000a900473ffffffffffffffffffffffffffffffffffffffff1673ffffffffffffffffffffffffffffffffffffffff1663a9059cbb83836040518363ffffffff1660e01b81526004016118f3929190613034565b6020604051808303816000875af1158015611912573d6000803e3d6000fd5b505050506040513d601f19601f820116820180604052508101906119369190613072565b505050565b60007f01ffc9a7000000000000000000000000000000000000000000000000000000007bffffffffffffffffffffffffffffffffffffffffffffffffffffffff1916827bffffffffffffffffffffffffffffffffffffffffffffffffffffffff1916149050919050565b60008073ffffffffffffffffffffffffffffffffffffffff166119c7836110fe565b73ffffffffffffffffffffffffffffffffffffffff1614159050919050565b50505050565b50505050565b6000611a138473ffffffffffffffffffffffffffffffffffffffff16611c47565b15611b6c578373ffffffffffffffffffffffffffffffffffffffff1663150b7a02611a3c610caf565b8786866040518563ffffffff1660e01b8152600401611a5e94939291906130f4565b6020604051808303816000875af1925050508015611a9a57506040513d601f19601f82011682018060405250810190611a979190613155565b60015b611b1c573d8060008114611aca576040519150601f19603f3d011682016040523d82523d6000602084013e611acf565b606091505b506000815103611b14576040517f08c379a0000000000000000000000000000000000000000000000000000000008152600401611b0b90612b62565b60405180910390fd5b805181602001fd5b63150b7a0260e01b7bffffffffffffffffffffffffffffffffffffffffffffffffffffffff1916817bffffffffffffffffffffffffffffffffffffffffffffffffffffffff191614915050611b71565b600190505b949350505050565b606060006001611b8884611c6a565b01905060008167ffffffffffffffff811115611ba757611ba6612189565b5b6040519080825280601f01601f191660200182016040528015611bd95781602001600182028036833780820191505090505b509050600082602001820190505b600115611c3c578080600190039150507f3031323334353637383961626364656600000000000000000000000000000000600a86061a8153600a8581611c3057611c2f613182565b5b04945060008503611be7575b819350505050919050565b6000808273ffffffffffffffffffffffffffffffffffffffff163b119050919050565b600080600090507a184f03e93ff9f4daa797ed6e38ed64bf6a1f0100000000000000008310611cc8577a184f03e93ff9f4daa797ed6e38ed64bf6a1f0100000000000000008381611cbe57611cbd613182565b5b0492506040810190505b6d04ee2d6d415b85acef81000000008310611d05576d04ee2d6d415b85acef81000000008381611cfb57611cfa613182565b5b0492506020810190505b662386f26fc100008310611d3457662386f26fc100008381611d2a57611d29613182565b5b0492506010810190505b6305f5e1008310611d5d576305f5e1008381611d5357611d52613182565b5b0492506008810190505b6127108310611d82576127108381611d7857611d77613182565b5b0492506004810190505b60648310611da55760648381611d9b57611d9a613182565b5b0492506002810190505b600a8310611db4576001810190505b80915050919050565b6000604051905090565b600080fd5b600080fd5b60007fffffffff0000000000000000000000000000000000000000000000000000000082169050919050565b611e0681611dd1565b8114611e1157600080fd5b50565b600081359050611e2381611dfd565b92915050565b600060208284031215611e3f57611e3e611dc7565b5b6000611e4d84828501611e14565b91505092915050565b60008115159050919050565b611e6b81611e56565b82525050565b6000602082019050611e866000830184611e62565b92915050565b600081519050919050565b600082825260208201905092915050565b60005b83811015611ec6578082015181840152602081019050611eab565b60008484015250505050565b6000601f19601f8301169050919050565b6000611eee82611e8c565b611ef88185611e97565b9350611f08818560208601611ea8565b611f1181611ed2565b840191505092915050565b60006020820190508181036000830152611f368184611ee3565b905092915050565b6000819050919050565b611f5181611f3e565b8114611f5c57600080fd5b50565b600081359050611f6e81611f48565b92915050565b600060208284031215611f8a57611f89611dc7565b5b6000611f9884828501611f5f565b91505092915050565b600073ffffffffffffffffffffffffffffffffffffffff82169050919050565b6000611fcc82611fa1565b9050919050565b611fdc81611fc1565b82525050565b6000602082019050611ff76000830184611fd3565b92915050565b61200681611fc1565b811461201157600080fd5b50565b60008135905061202381611ffd565b92915050565b600080604083850312156120405761203f611dc7565b5b600061204e85828601612014565b925050602061205f85828601611f5f565b9150509250929050565b60008060006060848603121561208257612081611dc7565b5b600061209086828701612014565b93505060206120a186828701612014565b92505060406120b286828701611f5f565b9150509250925092565b6000602082840312156120d2576120d1611dc7565b5b60006120e084828501612014565b91505092915050565b6120f281611f3e565b82525050565b600060208201905061210d60008301846120e9565b92915050565b61211c81611e56565b811461212757600080fd5b50565b60008135905061213981612113565b92915050565b6000806040838503121561215657612155611dc7565b5b600061216485828601612014565b92505060206121758582860161212a565b9150509250929050565b600080fd5b600080fd5b7f4e487b7100000000000000000000000000000000000000000000000000000000600052604160045260246000fd5b6121c182611ed2565b810181811067ffffffffffffffff821117156121e0576121df612189565b5b80604052505050565b60006121f3611dbd565b90506121ff82826121b8565b919050565b600067ffffffffffffffff82111561221f5761221e612189565b5b61222882611ed2565b9050602081019050919050565b82818337600083830152505050565b600061225761225284612204565b6121e9565b90508281526020810184848401111561227357612272612184565b5b61227e848285612235565b509392505050565b600082601f83011261229b5761229a61217f565b5b81356122ab848260208601612244565b91505092915050565b600080600080608085870312156122ce576122cd611dc7565b5b60006122dc87828801612014565b94505060206122ed87828801612014565b93505060406122fe87828801611f5f565b925050606085013567ffffffffffffffff81111561231f5761231e611dcc565b5b61232b87828801612286565b91505092959194509250565b6000806040838503121561234e5761234d611dc7565b5b600061235c85828601612014565b925050602061236d85828601612014565b9150509250929050565b600067ffffffffffffffff82111561239257612391612189565b5b61239b82611ed2565b9050602081019050919050565b60006123bb6123b684612377565b6121e9565b9050828152602081018484840111156123d7576123d6612184565b5b6123e2848285612235565b509392505050565b600082601f8301126123ff576123fe61217f565b5b813561240f8482602086016123a8565b91505092915050565b6000806040838503121561242f5761242e611dc7565b5b600061243d85828601612014565b925050602083013567ffffffffffffffff81111561245e5761245d611dcc565b5b61246a858286016123ea565b9150509250929050565b6000819050919050565b600061249961249461248f84611fa1565b612474565b611fa1565b9050919050565b60006124ab8261247e565b9050919050565b60006124bd826124a0565b9050919050565b6124cd816124b2565b82525050565b60006020820190506124e860008301846124c4565b92915050565b7f4e487b7100000000000000000000000000000000000000000000000000000000600052602260045260246000fd5b6000600282049050600182168061253557607f821691505b602082108103612548576125476124ee565b5b50919050565b7f4552433732313a20617070726f76616c20746f2063757272656e74206f776e6560008201527f7200000000000000000000000000000000000000000000000000000000000000602082015250565b60006125aa602183611e97565b91506125b58261254e565b604082019050919050565b600060208201905081810360008301526125d98161259d565b9050919050565b7f4552433732313a20617070726f76652063616c6c6572206973206e6f7420746f60008201527f6b656e206f776e6572206f7220617070726f76656420666f7220616c6c000000602082015250565b600061263c603d83611e97565b9150612647826125e0565b604082019050919050565b6000602082019050818103600083015261266b8161262f565b9050919050565b7f4552433732313a2063616c6c6572206973206e6f7420746f6b656e206f776e6560008201527f72206f7220617070726f76656400000000000000000000000000000000000000602082015250565b60006126ce602d83611e97565b91506126d982612672565b604082019050919050565b600060208201905081810360008301526126fd816126c1565b9050919050565b7f4552433732313a20696e76616c696420746f6b656e2049440000000000000000600082015250565b600061273a601883611e97565b915061274582612704565b602082019050919050565b600060208201905081810360008301526127698161272d565b9050919050565b7f4552433732313a2061646472657373207a65726f206973206e6f74206120766160008201527f6c6964206f776e65720000000000000000000000000000000000000000000000602082015250565b60006127cc602983611e97565b91506127d782612770565b604082019050919050565b600060208201905081810360008301526127fb816127bf565b9050919050565b600081905092915050565b600061281882611e8c565b6128228185612802565b9350612832818560208601611ea8565b80840191505092915050565b600061284a828561280d565b9150612856828461280d565b91508190509392505050565b7f4f776e61626c653a206e6577206f776e657220697320746865207a65726f206160008201527f6464726573730000000000000000000000000000000000000000000000000000602082015250565b60006128be602683611e97565b91506128c982612862565b604082019050919050565b600060208201905081810360008301526128ed816128b1565b9050919050565b7f4552433732313a207472616e736665722066726f6d20696e636f72726563742060008201527f6f776e6572000000000000000000000000000000000000000000000000000000602082015250565b6000612950602583611e97565b915061295b826128f4565b604082019050919050565b6000602082019050818103600083015261297f81612943565b9050919050565b7f4552433732313a207472616e7366657220746f20746865207a65726f2061646460008201527f7265737300000000000000000000000000000000000000000000000000000000602082015250565b60006129e2602483611e97565b91506129ed82612986565b604082019050919050565b60006020820190508181036000830152612a11816129d5565b9050919050565b7f4f776e61626c653a2063616c6c6572206973206e6f7420746865206f776e6572600082015250565b6000612a4e602083611e97565b9150612a5982612a18565b602082019050919050565b60006020820190508181036000830152612a7d81612a41565b9050919050565b7f4552433732313a20617070726f766520746f2063616c6c657200000000000000600082015250565b6000612aba601983611e97565b9150612ac582612a84565b602082019050919050565b60006020820190508181036000830152612ae981612aad565b9050919050565b7f4552433732313a207472616e7366657220746f206e6f6e20455243373231526560008201527f63656976657220696d706c656d656e7465720000000000000000000000000000602082015250565b6000612b4c603283611e97565b9150612b5782612af0565b604082019050919050565b60006020820190508181036000830152612b7b81612b3f565b9050919050565b7f4552433732313a206d696e7420746f20746865207a65726f2061646472657373600082015250565b6000612bb8602083611e97565b9150612bc382612b82565b602082019050919050565b60006020820190508181036000830152612be781612bab565b9050919050565b7f4552433732313a20746f6b656e20616c7265616479206d696e74656400000000600082015250565b6000612c24601c83611e97565b9150612c2f82612bee565b602082019050919050565b60006020820190508181036000830152612c5381612c17565b9050919050565b7f45524337323155524953746f726167653a2055524920736574206f66206e6f6e60008201527f6578697374656e7420746f6b656e000000000000000000000000000000000000602082015250565b6000612cb6602e83611e97565b9150612cc182612c5a565b604082019050919050565b60006020820190508181036000830152612ce581612ca9565b9050919050565b60008190508160005260206000209050919050565b60006020601f8301049050919050565b600082821b905092915050565b600060088302612d4e7fffffffffffffffffffffffffffffffffffffffffffffffffffffffffffffffff82612d11565b612d588683612d11565b95508019841693508086168417925050509392505050565b6000612d8b612d86612d8184611f3e565b612474565b611f3e565b9050919050565b6000819050919050565b612da583612d70565b612db9612db182612d92565b848454612d1e565b825550505050565b600090565b612dce612dc1565b612dd9818484612d9c565b505050565b5b81811015612dfd57612df2600082612dc6565b600181019050612ddf565b5050565b601f821115612e4257612e1381612cec565b612e1c84612d01565b81016020851015612e2b578190505b612e3f612e3785612d01565b830182612dde565b50505b505050565b600082821c905092915050565b6000612e6560001984600802612e47565b1980831691505092915050565b6000612e7e8383612e54565b9150826002028217905092915050565b612e9782611e8c565b67ffffffffffffffff811115612eb057612eaf612189565b5b612eba825461251d565b612ec5828285612e01565b600060209050601f831160018114612ef85760008415612ee6578287015190505b612ef08582612e72565b865550612f58565b601f198416612f0686612cec565b60005b82811015612f2e57848901518255600182019150602085019450602081019050612f09565b86831015612f4b5784890151612f47601f891682612e54565b8355505b6001600288020188555050505b505050505050565b600081519050612f6f81611f48565b92915050565b600060208284031215612f8b57612f8a611dc7565b5b6000612f9984828501612f60565b91505092915050565b7f4e6f7420656e6f75676820746f6b656e7320696e20636f6e747261637420746f60008201527f2072657761726420757365720000000000000000000000000000000000000000602082015250565b6000612ffe602c83611e97565b915061300982612fa2565b604082019050919050565b6000602082019050818103600083015261302d81612ff1565b9050919050565b60006040820190506130496000830185611fd3565b61305660208301846120e9565b9392505050565b60008151905061306c81612113565b92915050565b60006020828403121561308857613087611dc7565b5b60006130968482850161305d565b91505092915050565b600081519050919050565b600082825260208201905092915050565b60006130c68261309f565b6130d081856130aa565b93506130e0818560208601611ea8565b6130e981611ed2565b840191505092915050565b60006080820190506131096000830187611fd3565b6131166020830186611fd3565b61312360408301856120e9565b818103606083015261313581846130bb565b905095945050505050565b60008151905061314f81611dfd565b92915050565b60006020828403121561316b5761316a611dc7565b5b600061317984828501613140565b91505092915050565b7f4e487b7100000000000000000000000000000000000000000000000000000000600052601260045260246000fdfea26469706673582212209ff5fec4a86e71e28b79f57ca2fddbda88088d4cfb2f33c1b686197431d3a04664736f6c63430008130033",
  "immutableReferences": {},
  "source": "// SPDX-License-Identifier: MIT\npragma solidity ^0.8.17;\n\nimport \"@openzeppelin/contracts/token/ERC721/extensions/ERC721URIStorage.sol\";\nimport \"@openzeppelin/contracts/utils/Counters.sol\";\nimport \"@openzeppelin/contracts/access/Ownable.sol\";\nimport \"@openzeppelin/contracts/token/ERC20/IERC20.sol\";\n\ncontract MyNFT is ERC721URIStorage, Ownable {\n    using Counters for Counters.Counter;\n    Counters.Counter private _tokenIds;\n\n    IERC20 public rewardToken;\n\n    constructor(IERC20 _rewardToken) public ERC721(\"MyNFT\", \"NFT\") {\n        rewardToken = _rewardToken;\n    }\n\n    function mintNFT(address recipient, string memory tokenURI)\n        public onlyOwner\n        returns (uint256)\n    {\n        _tokenIds.increment();\n\n        uint256 newItemId = _tokenIds.current();\n        _mint(recipient, newItemId);\n        _setTokenURI(newItemId, tokenURI);\n\n        // Reward the user with ERC20 tokens\n        rewardUser(recipient);\n\n        return newItemId;\n    }\n\n    function rewardUser(address user) internal {\n        // Define the reward amount. It could also be variable.\n        uint256 rewardAmount = 1 * 10**18; // This assumes that your token has 18 decimals, change it accordingly.\n\n        // Check if the contract has enough balance to give the reward.\n        require(rewardToken.balanceOf(address(this)) >= rewardAmount, \"Not enough tokens in contract to reward user\");\n\n        // Transfer the reward to the user\n        rewardToken.transfer(user, rewardAmount);\n    }\n}",
  "sourcePath": "/home/lam.nguyenduc92/workspace/nft-market-on-AWS/nft-boilerplate/contracts/MyNFT.sol",
  "compiler": {
    "name": "solc",
    "version": "0.8.19+commit.7dd6d404.Emscripten.clang"
  },
  "schemaVersion": "3.4.13",
  "updatedAt": "2023-05-25T23:28:30.302Z",
  "networkType": "ethereum",
  "devdoc": {
    "events": {
      "Approval(address,address,uint256)": {
        "details": "Emitted when `owner` enables `approved` to manage the `tokenId` token."
      },
      "ApprovalForAll(address,address,bool)": {
        "details": "Emitted when `owner` enables or disables (`approved`) `operator` to manage all of its assets."
      },
      "BatchMetadataUpdate(uint256,uint256)": {
        "details": "This event emits when the metadata of a range of tokens is changed. So that the third-party platforms such as NFT market could timely update the images and related attributes of the NFTs."
      },
      "MetadataUpdate(uint256)": {
        "details": "This event emits when the metadata of a token is changed. So that the third-party platforms such as NFT market could timely update the images and related attributes of the NFT."
      },
      "Transfer(address,address,uint256)": {
        "details": "Emitted when `tokenId` token is transferred from `from` to `to`."
      }
    },
    "kind": "dev",
    "methods": {
      "approve(address,uint256)": {
        "details": "See {IERC721-approve}."
      },
      "balanceOf(address)": {
        "details": "See {IERC721-balanceOf}."
      },
      "getApproved(uint256)": {
        "details": "See {IERC721-getApproved}."
      },
      "isApprovedForAll(address,address)": {
        "details": "See {IERC721-isApprovedForAll}."
      },
      "name()": {
        "details": "See {IERC721Metadata-name}."
      },
      "owner()": {
        "details": "Returns the address of the current owner."
      },
      "ownerOf(uint256)": {
        "details": "See {IERC721-ownerOf}."
      },
      "renounceOwnership()": {
        "details": "Leaves the contract without owner. It will not be possible to call `onlyOwner` functions. Can only be called by the current owner. NOTE: Renouncing ownership will leave the contract without an owner, thereby disabling any functionality that is only available to the owner."
      },
      "safeTransferFrom(address,address,uint256)": {
        "details": "See {IERC721-safeTransferFrom}."
      },
      "safeTransferFrom(address,address,uint256,bytes)": {
        "details": "See {IERC721-safeTransferFrom}."
      },
      "setApprovalForAll(address,bool)": {
        "details": "See {IERC721-setApprovalForAll}."
      },
      "supportsInterface(bytes4)": {
        "details": "See {IERC165-supportsInterface}"
      },
      "symbol()": {
        "details": "See {IERC721Metadata-symbol}."
      },
      "tokenURI(uint256)": {
        "details": "See {IERC721Metadata-tokenURI}."
      },
      "transferFrom(address,address,uint256)": {
        "details": "See {IERC721-transferFrom}."
      },
      "transferOwnership(address)": {
        "details": "Transfers ownership of the contract to a new account (`newOwner`). Can only be called by the current owner."
      }
    },
    "version": 1
  },
  "userdoc": {
    "kind": "user",
    "methods": {},
    "version": 1
  }
}